{
  "_format": "hh-sol-artifact-1",
  "contractName": "Zendo",
  "sourceName": "contracts/Zendo.sol",
  "abi": [
    {
      "anonymous": false,
      "inputs": [
        {
          "indexed": false,
          "internalType": "uint256",
          "name": "id",
          "type": "uint256"
        },
        {
          "indexed": false,
          "internalType": "string",
          "name": "dealName",
          "type": "string"
        },
        {
          "indexed": false,
          "internalType": "address",
          "name": "creator",
          "type": "address"
        },
        {
          "indexed": false,
          "internalType": "uint256",
          "name": "maxParticipants",
          "type": "uint256"
        },
        {
          "indexed": false,
          "internalType": "uint256",
          "name": "rewards",
          "type": "uint256"
        },
        {
          "indexed": false,
          "internalType": "uint256",
          "name": "goal",
          "type": "uint256"
        },
        {
          "indexed": false,
          "internalType": "uint256",
          "name": "numberOfDays",
          "type": "uint256"
        },
        {
          "indexed": false,
          "internalType": "uint256",
          "name": "startDate",
          "type": "uint256"
        },
        {
          "indexed": false,
          "internalType": "uint256",
          "name": "endDate",
          "type": "uint256"
        },
        {
          "indexed": false,
          "internalType": "address",
          "name": "tokenAddress",
          "type": "address"
        }
      ],
      "name": "DealCreated",
      "type": "event"
    },
    {
      "inputs": [
        {
          "internalType": "uint256",
          "name": "_id",
          "type": "uint256"
        }
      ],
      "name": "activateDeal",
      "outputs": [],
      "stateMutability": "nonpayable",
      "type": "function"
    },
    {
      "inputs": [
        {
          "internalType": "uint256",
          "name": "_id",
          "type": "uint256"
        },
        {
          "internalType": "address",
          "name": "participant",
          "type": "address"
        }
      ],
      "name": "addParticipant",
      "outputs": [],
      "stateMutability": "nonpayable",
      "type": "function"
    },
    {
      "inputs": [
        {
          "internalType": "uint256",
          "name": "_id",
          "type": "uint256"
        },
        {
          "internalType": "string",
          "name": "_dealName",
          "type": "string"
        },
        {
          "internalType": "uint256",
          "name": "_maxParticipants",
          "type": "uint256"
        },
        {
          "internalType": "address",
          "name": "_creator",
          "type": "address"
        },
        {
          "internalType": "uint256",
          "name": "_rewards",
          "type": "uint256"
        },
        {
          "internalType": "uint256",
          "name": "_goal",
          "type": "uint256"
        },
        {
          "internalType": "uint256",
          "name": "_numberOfDays",
          "type": "uint256"
        },
        {
          "internalType": "uint256",
          "name": "_startDate",
          "type": "uint256"
        },
        {
          "internalType": "uint256",
          "name": "_endDate",
          "type": "uint256"
        },
        {
          "internalType": "address",
          "name": "_tokenAddress",
          "type": "address"
        }
      ],
      "name": "createDeal",
      "outputs": [
        {
          "internalType": "uint256",
          "name": "",
          "type": "uint256"
        }
      ],
      "stateMutability": "nonpayable",
      "type": "function"
    },
    {
      "inputs": [
        {
          "internalType": "uint256",
          "name": "id",
          "type": "uint256"
        }
      ],
      "name": "dealExists",
      "outputs": [
        {
          "internalType": "uint256",
          "name": "",
          "type": "uint256"
        }
      ],
      "stateMutability": "view",
      "type": "function"
    },
    {
      "inputs": [
        {
          "internalType": "uint256",
          "name": "",
          "type": "uint256"
        },
        {
          "internalType": "address",
          "name": "",
          "type": "address"
        }
      ],
      "name": "dealParticipants",
      "outputs": [
        {
          "internalType": "address",
          "name": "participantAddress",
          "type": "address"
        },
        {
          "internalType": "uint256",
          "name": "rewardsClaimed",
          "type": "uint256"
        },
        {
          "internalType": "bool",
          "name": "isRewarded",
          "type": "bool"
        },
        {
          "internalType": "bool",
          "name": "isRegistered",
          "type": "bool"
        }
      ],
      "stateMutability": "view",
      "type": "function"
    },
    {
      "inputs": [
        {
          "internalType": "uint256",
          "name": "",
          "type": "uint256"
        }
      ],
      "name": "deals",
      "outputs": [
        {
          "internalType": "uint256",
          "name": "id",
          "type": "uint256"
        },
        {
          "internalType": "string",
          "name": "dealName",
          "type": "string"
        },
        {
          "internalType": "address",
          "name": "creator",
          "type": "address"
        },
        {
          "internalType": "uint256",
          "name": "maxParticipants",
          "type": "uint256"
        },
        {
          "internalType": "uint256",
          "name": "rewards",
          "type": "uint256"
        },
        {
          "internalType": "uint256",
          "name": "goal",
          "type": "uint256"
        },
        {
          "internalType": "uint256",
          "name": "numberOfDays",
          "type": "uint256"
        },
        {
          "internalType": "uint256",
          "name": "startDate",
          "type": "uint256"
        },
        {
          "internalType": "uint256",
          "name": "endDate",
          "type": "uint256"
        },
        {
          "internalType": "uint256",
          "name": "currentParticipantCount",
          "type": "uint256"
        },
        {
          "internalType": "bool",
          "name": "isActive",
          "type": "bool"
        },
        {
          "internalType": "address",
          "name": "tokenAddress",
          "type": "address"
        }
      ],
      "stateMutability": "view",
      "type": "function"
    },
    {
      "inputs": [
        {
          "internalType": "uint256",
          "name": "_id",
          "type": "uint256"
        }
      ],
      "name": "enddeal",
      "outputs": [],
      "stateMutability": "nonpayable",
      "type": "function"
    },
    {
      "inputs": [
        {
          "internalType": "uint256",
          "name": "_id",
          "type": "uint256"
        },
        {
          "internalType": "address",
          "name": "participant",
          "type": "address"
        }
      ],
      "name": "getParticipant",
      "outputs": [
        {
          "internalType": "address",
          "name": "",
          "type": "address"
        }
      ],
      "stateMutability": "view",
      "type": "function"
    },
    {
      "inputs": [
        {
          "internalType": "uint256",
          "name": "_id",
          "type": "uint256"
        }
      ],
      "name": "isDealActive",
      "outputs": [
        {
          "internalType": "bool",
          "name": "",
          "type": "bool"
        }
      ],
      "stateMutability": "view",
      "type": "function"
    },
    {
      "inputs": [
        {
          "internalType": "uint256",
          "name": "_id",
          "type": "uint256"
        },
        {
          "internalType": "address",
          "name": "participant",
          "type": "address"
        }
      ],
      "name": "rewardUser",
      "outputs": [],
      "stateMutability": "nonpayable",
      "type": "function"
    }
  ],
  "bytecode": "0x6080604052348015600f57600080fd5b50611e418061001f6000396000f3fe608060405234801561001057600080fd5b506004361061009e5760003560e01c8063714dcf8511610066578063714dcf851461018a5780637fda2540146101a65780638b1ec1ba146101d6578063da3933a7146101f2578063f021de04146102255761009e565b806303988f84146100a35780630405b512146100de5780630b7ad2a81461010e57806318d85e531461013e57806335f3ad7a1461015a575b600080fd5b6100bd60048036038101906100b89190610f7c565b610241565b6040516100d59c9b9a999897969594939291906110a4565b60405180910390f35b6100f860048036038101906100f39190610f7c565b610376565b6040516101059190611165565b60405180910390f35b610128600480360381019061012391906112e1565b6103a2565b60405161013591906113dc565b60405180910390f35b610158600480360381019061015391906113f7565b610512565b005b610174600480360381019061016f91906113f7565b6107f3565b6040516101819190611437565b60405180910390f35b6101a4600480360381019061019f91906113f7565b610871565b005b6101c060048036038101906101bb9190610f7c565b610b47565b6040516101cd91906113dc565b60405180910390f35b6101f060048036038101906101eb9190610f7c565b610b79565b005b61020c600480360381019061020791906113f7565b610c8f565b60405161021c9493929190611452565b60405180910390f35b61023f600480360381019061023a9190610f7c565b610d06565b005b600060205280600052604060002060009150905080600001549080600101805461026a906114c6565b80601f0160208091040260200160405190810160405280929190818152602001828054610296906114c6565b80156102e35780601f106102b8576101008083540402835291602001916102e3565b820191906000526020600020905b8154815290600101906020018083116102c657829003601f168201915b5050505050908060020160009054906101000a900473ffffffffffffffffffffffffffffffffffffffff169080600301549080600401549080600501549080600601549080600701549080600801549080600901549080600a0160009054906101000a900460ff169080600a0160019054906101000a900473ffffffffffffffffffffffffffffffffffffffff1690508c565b6000806000838152602001908152602001600020600a0160009054906101000a900460ff169050919050565b6000806000808d815260200190815260200160002090508b81600001819055508a8160010190816103d391906116a3565b50888160020160006101000a81548173ffffffffffffffffffffffffffffffffffffffff021916908373ffffffffffffffffffffffffffffffffffffffff160217905550898160030181905550878160040181905550868160050181905550858160060181905550848160070181905550838160080181905550600081600a0160006101000a81548160ff0219169083151502179055508281600a0160016101000a81548173ffffffffffffffffffffffffffffffffffffffff021916908373ffffffffffffffffffffffffffffffffffffffff160217905550600081600901819055507fc1d0a6c7e5b26aba24dfdf41f3743671a5320f6722e48a86628af6482f0536bb8c8c8b8d8c8c8c8c8c8c6040516104f89a99989796959493929190611775565b60405180910390a18b9150509a9950505050505050505050565b600080600084815260200190815260200160002090508281600001541461056e576040517f08c379a000000000000000000000000000000000000000000000000000000000815260040161056590611864565b60405180910390fd5b80600a0160009054906101000a900460ff166105bf576040517f08c379a00000000000000000000000000000000000000000000000000000000081526004016105b6906118d0565b60405180910390fd5b8060030154816009015410610609576040517f08c379a00000000000000000000000000000000000000000000000000000000081526004016106009061193c565b60405180910390fd5b60006001600085815260200190815260200160002060008473ffffffffffffffffffffffffffffffffffffffff1673ffffffffffffffffffffffffffffffffffffffff16815260200190815260200160002090508060020160019054906101000a900460ff16156106af576040517f08c379a00000000000000000000000000000000000000000000000000000000081526004016106a6906119a8565b60405180910390fd5b60405180608001604052808473ffffffffffffffffffffffffffffffffffffffff16815260200160008152602001600015158152602001600115158152506001600086815260200190815260200160002060008573ffffffffffffffffffffffffffffffffffffffff1673ffffffffffffffffffffffffffffffffffffffff16815260200190815260200160002060008201518160000160006101000a81548173ffffffffffffffffffffffffffffffffffffffff021916908373ffffffffffffffffffffffffffffffffffffffff1602179055506020820151816001015560408201518160020160006101000a81548160ff02191690831515021790555060608201518160020160016101000a81548160ff02191690831515021790555090505060018260090160008282546107e691906119f7565b9250508190555050505050565b60006001600084815260200190815260200160002060008373ffffffffffffffffffffffffffffffffffffffff1673ffffffffffffffffffffffffffffffffffffffff16815260200190815260200160002060000160009054906101000a900473ffffffffffffffffffffffffffffffffffffffff16905092915050565b60008060008481526020019081526020016000209050828160000154146108cd576040517f08c379a00000000000000000000000000000000000000000000000000000000081526004016108c490611864565b60405180910390fd5b80600a0160009054906101000a900460ff1661091e576040517f08c379a0000000000000000000000000000000000000000000000000000000008152600401610915906118d0565b60405180910390fd5b60006001600085815260200190815260200160002060008473ffffffffffffffffffffffffffffffffffffffff1673ffffffffffffffffffffffffffffffffffffffff16815260200190815260200160002090508060020160019054906101000a900460ff166109c3576040517f08c379a00000000000000000000000000000000000000000000000000000000081526004016109ba90611a77565b60405180910390fd5b8060020160009054906101000a900460ff1615610a15576040517f08c379a0000000000000000000000000000000000000000000000000000000008152600401610a0c90611ae3565b60405180910390fd5b600082600301548360040154610a2b9190611b32565b9050600083600a0160019054906101000a900473ffffffffffffffffffffffffffffffffffffffff16905060008173ffffffffffffffffffffffffffffffffffffffff1663a9059cbb87856040518363ffffffff1660e01b8152600401610a93929190611b63565b6020604051808303816000875af1158015610ab2573d6000803e3d6000fd5b505050506040513d601f19601f82011682018060405250810190610ad69190611bb8565b905080610b18576040517f08c379a0000000000000000000000000000000000000000000000000000000008152600401610b0f90611c31565b60405180910390fd5b82846001018190555060018460020160006101000a81548160ff02191690831515021790555050505050505050565b6000816000808481526020019081526020016000206000015414610b6c576000610b6f565b60015b60ff169050919050565b6000806000838152602001908152602001600020905081816000015414610bd5576040517f08c379a0000000000000000000000000000000000000000000000000000000008152600401610bcc90611864565b60405180910390fd5b80600a0160009054906101000a900460ff1615610c27576040517f08c379a0000000000000000000000000000000000000000000000000000000008152600401610c1e90611c9d565b60405180910390fd5b4281600801541015610c6e576040517f08c379a0000000000000000000000000000000000000000000000000000000008152600401610c6590611d09565b60405180910390fd5b600181600a0160006101000a81548160ff0219169083151502179055505050565b6001602052816000526040600020602052806000526040600020600091509150508060000160009054906101000a900473ffffffffffffffffffffffffffffffffffffffff16908060010154908060020160009054906101000a900460ff16908060020160019054906101000a900460ff16905084565b6000806000838152602001908152602001600020905081816000015414610d62576040517f08c379a0000000000000000000000000000000000000000000000000000000008152600401610d5990611864565b60405180910390fd5b80600a0160009054906101000a900460ff16610db3576040517f08c379a0000000000000000000000000000000000000000000000000000000008152600401610daa906118d0565b60405180910390fd5b600081600a0160006101000a81548160ff021916908315150217905550600081600301548260040154610de69190611b32565b90506000826009015482610dfa9190611d29565b90506000818460040154610e0e9190611d6b565b90506000811115610f2b57600084600a0160019054906101000a900473ffffffffffffffffffffffffffffffffffffffff16905060008173ffffffffffffffffffffffffffffffffffffffff1663a9059cbb8760020160009054906101000a900473ffffffffffffffffffffffffffffffffffffffff16856040518363ffffffff1660e01b8152600401610ea3929190611b63565b6020604051808303816000875af1158015610ec2573d6000803e3d6000fd5b505050506040513d601f19601f82011682018060405250810190610ee69190611bb8565b905080610f28576040517f08c379a0000000000000000000000000000000000000000000000000000000008152600401610f1f90611deb565b60405180910390fd5b50505b5050505050565b6000604051905090565b600080fd5b600080fd5b6000819050919050565b610f5981610f46565b8114610f6457600080fd5b50565b600081359050610f7681610f50565b92915050565b600060208284031215610f9257610f91610f3c565b5b6000610fa084828501610f67565b91505092915050565b610fb281610f46565b82525050565b600081519050919050565b600082825260208201905092915050565b60005b83811015610ff2578082015181840152602081019050610fd7565b60008484015250505050565b6000601f19601f8301169050919050565b600061101a82610fb8565b6110248185610fc3565b9350611034818560208601610fd4565b61103d81610ffe565b840191505092915050565b600073ffffffffffffffffffffffffffffffffffffffff82169050919050565b600061107382611048565b9050919050565b61108381611068565b82525050565b60008115159050919050565b61109e81611089565b82525050565b6000610180820190506110ba600083018f610fa9565b81810360208301526110cc818e61100f565b90506110db604083018d61107a565b6110e8606083018c610fa9565b6110f5608083018b610fa9565b61110260a083018a610fa9565b61110f60c0830189610fa9565b61111c60e0830188610fa9565b61112a610100830187610fa9565b611138610120830186610fa9565b611146610140830185611095565b61115461016083018461107a565b9d9c50505050505050505050505050565b600060208201905061117a6000830184611095565b92915050565b600080fd5b600080fd5b7f4e487b7100000000000000000000000000000000000000000000000000000000600052604160045260246000fd5b6111c282610ffe565b810181811067ffffffffffffffff821117156111e1576111e061118a565b5b80604052505050565b60006111f4610f32565b905061120082826111b9565b919050565b600067ffffffffffffffff8211156112205761121f61118a565b5b61122982610ffe565b9050602081019050919050565b82818337600083830152505050565b600061125861125384611205565b6111ea565b90508281526020810184848401111561127457611273611185565b5b61127f848285611236565b509392505050565b600082601f83011261129c5761129b611180565b5b81356112ac848260208601611245565b91505092915050565b6112be81611068565b81146112c957600080fd5b50565b6000813590506112db816112b5565b92915050565b6000806000806000806000806000806101408b8d03121561130557611304610f3c565b5b60006113138d828e01610f67565b9a505060208b013567ffffffffffffffff81111561133457611333610f41565b5b6113408d828e01611287565b99505060406113518d828e01610f67565b98505060606113628d828e016112cc565b97505060806113738d828e01610f67565b96505060a06113848d828e01610f67565b95505060c06113958d828e01610f67565b94505060e06113a68d828e01610f67565b9350506101006113b88d828e01610f67565b9250506101206113ca8d828e016112cc565b9150509295989b9194979a5092959850565b60006020820190506113f16000830184610fa9565b92915050565b6000806040838503121561140e5761140d610f3c565b5b600061141c85828601610f67565b925050602061142d858286016112cc565b9150509250929050565b600060208201905061144c600083018461107a565b92915050565b6000608082019050611467600083018761107a565b6114746020830186610fa9565b6114816040830185611095565b61148e6060830184611095565b95945050505050565b7f4e487b7100000000000000000000000000000000000000000000000000000000600052602260045260246000fd5b600060028204905060018216806114de57607f821691505b6020821081036114f1576114f0611497565b5b50919050565b60008190508160005260206000209050919050565b60006020601f8301049050919050565b600082821b905092915050565b6000600883026115597fffffffffffffffffffffffffffffffffffffffffffffffffffffffffffffffff8261151c565b611563868361151c565b95508019841693508086168417925050509392505050565b6000819050919050565b60006115a061159b61159684610f46565b61157b565b610f46565b9050919050565b6000819050919050565b6115ba83611585565b6115ce6115c6826115a7565b848454611529565b825550505050565b600090565b6115e36115d6565b6115ee8184846115b1565b505050565b5b81811015611612576116076000826115db565b6001810190506115f4565b5050565b601f82111561165757611628816114f7565b6116318461150c565b81016020851015611640578190505b61165461164c8561150c565b8301826115f3565b50505b505050565b600082821c905092915050565b600061167a6000198460080261165c565b1980831691505092915050565b60006116938383611669565b9150826002028217905092915050565b6116ac82610fb8565b67ffffffffffffffff8111156116c5576116c461118a565b5b6116cf82546114c6565b6116da828285611616565b600060209050601f83116001811461170d57600084156116fb578287015190505b6117058582611687565b86555061176d565b601f19841661171b866114f7565b60005b828110156117435784890151825560018201915060208501945060208101905061171e565b86831015611760578489015161175c601f891682611669565b8355505b6001600288020188555050505b505050505050565b60006101408201905061178b600083018d610fa9565b818103602083015261179d818c61100f565b90506117ac604083018b61107a565b6117b9606083018a610fa9565b6117c66080830189610fa9565b6117d360a0830188610fa9565b6117e060c0830187610fa9565b6117ed60e0830186610fa9565b6117fb610100830185610fa9565b61180961012083018461107a565b9b9a5050505050505050505050565b7f4465616c20646f6573206e6f7420657869737400000000000000000000000000600082015250565b600061184e601383610fc3565b915061185982611818565b602082019050919050565b6000602082019050818103600083015261187d81611841565b9050919050565b7f4465616c206973206e6f74206163746976650000000000000000000000000000600082015250565b60006118ba601283610fc3565b91506118c582611884565b602082019050919050565b600060208201905081810360008301526118e9816118ad565b9050919050565b7f4d6178207061727469636970616e747320726561636865640000000000000000600082015250565b6000611926601883610fc3565b9150611931826118f0565b602082019050919050565b6000602082019050818103600083015261195581611919565b9050919050565b7f5061727469636970616e7420616c726561647920726567697374657265640000600082015250565b6000611992601e83610fc3565b915061199d8261195c565b602082019050919050565b600060208201905081810360008301526119c181611985565b9050919050565b7f4e487b7100000000000000000000000000000000000000000000000000000000600052601160045260246000fd5b6000611a0282610f46565b9150611a0d83610f46565b9250828201905080821115611a2557611a246119c8565b5b92915050565b7f5061727469636970616e74206e6f7420666f756e640000000000000000000000600082015250565b6000611a61601583610fc3565b9150611a6c82611a2b565b602082019050919050565b60006020820190508181036000830152611a9081611a54565b9050919050565b7f5573657220616c72656164792072657761726465640000000000000000000000600082015250565b6000611acd601583610fc3565b9150611ad882611a97565b602082019050919050565b60006020820190508181036000830152611afc81611ac0565b9050919050565b7f4e487b7100000000000000000000000000000000000000000000000000000000600052601260045260246000fd5b6000611b3d82610f46565b9150611b4883610f46565b925082611b5857611b57611b03565b5b828204905092915050565b6000604082019050611b78600083018561107a565b611b856020830184610fa9565b9392505050565b611b9581611089565b8114611ba057600080fd5b50565b600081519050611bb281611b8c565b92915050565b600060208284031215611bce57611bcd610f3c565b5b6000611bdc84828501611ba3565b91505092915050565b7f5472616e73666572206661696c65640000000000000000000000000000000000600082015250565b6000611c1b600f83610fc3565b9150611c2682611be5565b602082019050919050565b60006020820190508181036000830152611c4a81611c0e565b9050919050565b7f4465616c20697320616c72656164792061637469766500000000000000000000600082015250565b6000611c87601683610fc3565b9150611c9282611c51565b602082019050919050565b60006020820190508181036000830152611cb681611c7a565b9050919050565b7f4465616c2068617320656e646564000000000000000000000000000000000000600082015250565b6000611cf3600e83610fc3565b9150611cfe82611cbd565b602082019050919050565b60006020820190508181036000830152611d2281611ce6565b9050919050565b6000611d3482610f46565b9150611d3f83610f46565b9250828202611d4d81610f46565b91508282048414831517611d6457611d636119c8565b5b5092915050565b6000611d7682610f46565b9150611d8183610f46565b9250828203905081811115611d9957611d986119c8565b5b92915050565b7f526566756e64207472616e73666572206661696c656400000000000000000000600082015250565b6000611dd5601683610fc3565b9150611de082611d9f565b602082019050919050565b60006020820190508181036000830152611e0481611dc8565b905091905056fea264697066735822122042d227237221bd3be3353eee98b9c2683c76ca30380482e0ad5a786a253a1a0664736f6c634300081c0033",
  "linkReferences": {},
  "deployedLinkReferences": {}
}